:100000000EC01DC01CC01BC01AC019C018C017C02C
:1000100016C015C014C013C012C011C010C01124E6
:100020001FBECFE5D2E0DEBFCDBF20E0A0E6B0E04E
:1000300001C01D92A337B207E1F755D0E1C0E0CF70
:1000400090EE909360008093610062E080E690E023
:100050007FC0E0E6F0E082E1DF011D928A95E9F7DA
:1000600080EE808362E1CF0173C0E0E6F0E082E1E0
:10007000DF011D928A95E9F780EE80839FE39093DC
:10008000620080EC8093640022ED209366008093F0
:10009000680020936A002EED20936C0080936E0020
:1000A0009093700062E1CF0153C0D3DF81E2C8DFDB
:1000B00080EEC6DF81E8C4CF18D0F7CF2FEF84E3FE
:1000C0009CE0215080409040E1F700C00000CDDF6F
:1000D0002FEF84E39CE0215080409040E1F700C086
:1000E0000000B7DFEBCFE8DFE9DFC09AC29ABA9A27
:1000F000B89A8FEF8FB98AE28DB980EF8EB90895E3
:100100008EB98BE294E69A95F1F700008DB9B29B17
:10011000FECF95E59A95F1F700008DB9769BF2CF69
:1001200084E68A95F1F700008FB19FEF9FB9B89AE6
:100130000895C098C29AB29BFECF85E58A95F1F7E3
:100140000000C09A84E68A95F1F7000081E00895E6
:100150000F931F93CF93DF93162F21E0209372000C
:10016000FC01208120FD03C023E020937200C29A8D
:10017000B29BFECFF4E6FA95F1F70000C09825E5B2
:100180002A95F1F70000C298C09AEC010FEF809118
:1001900072008370F9F0C29888818FB980EFB0DF68
:1001A000B8988EEFADDF80FF0FC090917200892F5D
:1001B000817090FF05C086E08093720080E01BC0D4
:1001C00095E09093720017C0809172008E7F8093AB
:1001D00072000BC0B89880EF93DF8883113011F460
:1001E0000FB901C01FB88EEF8BDF1150219611118E
:1001F000CECF9FDF81E0DF91CF911F910F910895C6
:04020000F894FFCFA0
:00000001FF
